{
  "_format": "hh-sol-artifact-1",
  "contractName": "PropertyNft",
  "sourceName": "contracts/PropertyNft.sol",
  "abi": [
    {
      "inputs": [],
      "stateMutability": "nonpayable",
      "type": "constructor"
    },
    {
      "anonymous": false,
      "inputs": [
        {
          "indexed": true,
          "internalType": "address",
          "name": "owner",
          "type": "address"
        },
        {
          "indexed": true,
          "internalType": "address",
          "name": "approved",
          "type": "address"
        },
        {
          "indexed": true,
          "internalType": "uint256",
          "name": "tokenId",
          "type": "uint256"
        }
      ],
      "name": "Approval",
      "type": "event"
    },
    {
      "anonymous": false,
      "inputs": [
        {
          "indexed": true,
          "internalType": "address",
          "name": "owner",
          "type": "address"
        },
        {
          "indexed": true,
          "internalType": "address",
          "name": "operator",
          "type": "address"
        },
        {
          "indexed": false,
          "internalType": "bool",
          "name": "approved",
          "type": "bool"
        }
      ],
      "name": "ApprovalForAll",
      "type": "event"
    },
    {
      "anonymous": false,
      "inputs": [
        {
          "indexed": true,
          "internalType": "address",
          "name": "previousOwner",
          "type": "address"
        },
        {
          "indexed": true,
          "internalType": "address",
          "name": "newOwner",
          "type": "address"
        }
      ],
      "name": "OwnershipTransferred",
      "type": "event"
    },
    {
      "anonymous": false,
      "inputs": [
        {
          "indexed": true,
          "internalType": "address",
          "name": "from",
          "type": "address"
        },
        {
          "indexed": true,
          "internalType": "address",
          "name": "to",
          "type": "address"
        },
        {
          "indexed": true,
          "internalType": "uint256",
          "name": "tokenId",
          "type": "uint256"
        }
      ],
      "name": "Transfer",
      "type": "event"
    },
    {
      "inputs": [
        {
          "internalType": "address",
          "name": "to",
          "type": "address"
        },
        {
          "internalType": "uint256",
          "name": "tokenId",
          "type": "uint256"
        }
      ],
      "name": "approve",
      "outputs": [],
      "stateMutability": "nonpayable",
      "type": "function"
    },
    {
      "inputs": [
        {
          "internalType": "address",
          "name": "owner",
          "type": "address"
        }
      ],
      "name": "balanceOf",
      "outputs": [
        {
          "internalType": "uint256",
          "name": "",
          "type": "uint256"
        }
      ],
      "stateMutability": "view",
      "type": "function"
    },
    {
      "inputs": [
        {
          "internalType": "uint256",
          "name": "tokenId",
          "type": "uint256"
        }
      ],
      "name": "getApproved",
      "outputs": [
        {
          "internalType": "address",
          "name": "",
          "type": "address"
        }
      ],
      "stateMutability": "view",
      "type": "function"
    },
    {
      "inputs": [
        {
          "internalType": "address",
          "name": "owner",
          "type": "address"
        },
        {
          "internalType": "address",
          "name": "operator",
          "type": "address"
        }
      ],
      "name": "isApprovedForAll",
      "outputs": [
        {
          "internalType": "bool",
          "name": "",
          "type": "bool"
        }
      ],
      "stateMutability": "view",
      "type": "function"
    },
    {
      "inputs": [
        {
          "internalType": "address",
          "name": "_to",
          "type": "address"
        },
        {
          "internalType": "string",
          "name": "_uri",
          "type": "string"
        }
      ],
      "name": "mint",
      "outputs": [
        {
          "internalType": "uint256",
          "name": "",
          "type": "uint256"
        }
      ],
      "stateMutability": "nonpayable",
      "type": "function"
    },
    {
      "inputs": [],
      "name": "name",
      "outputs": [
        {
          "internalType": "string",
          "name": "",
          "type": "string"
        }
      ],
      "stateMutability": "view",
      "type": "function"
    },
    {
      "inputs": [],
      "name": "owner",
      "outputs": [
        {
          "internalType": "address",
          "name": "",
          "type": "address"
        }
      ],
      "stateMutability": "view",
      "type": "function"
    },
    {
      "inputs": [
        {
          "internalType": "uint256",
          "name": "tokenId",
          "type": "uint256"
        }
      ],
      "name": "ownerOf",
      "outputs": [
        {
          "internalType": "address",
          "name": "",
          "type": "address"
        }
      ],
      "stateMutability": "view",
      "type": "function"
    },
    {
      "inputs": [],
      "name": "renounceOwnership",
      "outputs": [],
      "stateMutability": "nonpayable",
      "type": "function"
    },
    {
      "inputs": [
        {
          "internalType": "address",
          "name": "from",
          "type": "address"
        },
        {
          "internalType": "address",
          "name": "to",
          "type": "address"
        },
        {
          "internalType": "uint256",
          "name": "tokenId",
          "type": "uint256"
        }
      ],
      "name": "safeTransferFrom",
      "outputs": [],
      "stateMutability": "nonpayable",
      "type": "function"
    },
    {
      "inputs": [
        {
          "internalType": "address",
          "name": "from",
          "type": "address"
        },
        {
          "internalType": "address",
          "name": "to",
          "type": "address"
        },
        {
          "internalType": "uint256",
          "name": "tokenId",
          "type": "uint256"
        },
        {
          "internalType": "bytes",
          "name": "data",
          "type": "bytes"
        }
      ],
      "name": "safeTransferFrom",
      "outputs": [],
      "stateMutability": "nonpayable",
      "type": "function"
    },
    {
      "inputs": [
        {
          "internalType": "address",
          "name": "operator",
          "type": "address"
        },
        {
          "internalType": "bool",
          "name": "approved",
          "type": "bool"
        }
      ],
      "name": "setApprovalForAll",
      "outputs": [],
      "stateMutability": "nonpayable",
      "type": "function"
    },
    {
      "inputs": [
        {
          "internalType": "bytes4",
          "name": "interfaceId",
          "type": "bytes4"
        }
      ],
      "name": "supportsInterface",
      "outputs": [
        {
          "internalType": "bool",
          "name": "",
          "type": "bool"
        }
      ],
      "stateMutability": "view",
      "type": "function"
    },
    {
      "inputs": [],
      "name": "symbol",
      "outputs": [
        {
          "internalType": "string",
          "name": "",
          "type": "string"
        }
      ],
      "stateMutability": "view",
      "type": "function"
    },
    {
      "inputs": [
        {
          "internalType": "uint256",
          "name": "tokenId",
          "type": "uint256"
        }
      ],
      "name": "tokenURI",
      "outputs": [
        {
          "internalType": "string",
          "name": "",
          "type": "string"
        }
      ],
      "stateMutability": "view",
      "type": "function"
    },
    {
      "inputs": [],
      "name": "totalSupply",
      "outputs": [
        {
          "internalType": "uint256",
          "name": "",
          "type": "uint256"
        }
      ],
      "stateMutability": "view",
      "type": "function"
    },
    {
      "inputs": [
        {
          "internalType": "address",
          "name": "from",
          "type": "address"
        },
        {
          "internalType": "address",
          "name": "to",
          "type": "address"
        },
        {
          "internalType": "uint256",
          "name": "tokenId",
          "type": "uint256"
        }
      ],
      "name": "transferFrom",
      "outputs": [],
      "stateMutability": "nonpayable",
      "type": "function"
    },
    {
      "inputs": [
        {
          "internalType": "address",
          "name": "newOwner",
          "type": "address"
        }
      ],
      "name": "transferOwnership",
      "outputs": [],
      "stateMutability": "nonpayable",
      "type": "function"
    }
  ],
  "bytecode": "0x60806040523480156200001157600080fd5b506040518060400160405280600b81526020017f50726f70657274794e66740000000000000000000000000000000000000000008152506040518060400160405280600381526020017f504e540000000000000000000000000000000000000000000000000000000000815250816000908051906020019062000096929190620001a6565b508060019080519060200190620000af929190620001a6565b505050620000d2620000c6620000d860201b60201c565b620000e060201b60201c565b620002bb565b600033905090565b6000600760009054906101000a900473ffffffffffffffffffffffffffffffffffffffff16905081600760006101000a81548173ffffffffffffffffffffffffffffffffffffffff021916908373ffffffffffffffffffffffffffffffffffffffff1602179055508173ffffffffffffffffffffffffffffffffffffffff168173ffffffffffffffffffffffffffffffffffffffff167f8be0079c531659141344cd1fd0a4f28419497f9722a3daafe3b4186f6b6457e060405160405180910390a35050565b828054620001b49062000285565b90600052602060002090601f016020900481019282620001d8576000855562000224565b82601f10620001f357805160ff191683800117855562000224565b8280016001018555821562000224579182015b828111156200022357825182559160200191906001019062000206565b5b50905062000233919062000237565b5090565b5b808211156200025257600081600090555060010162000238565b5090565b7f4e487b7100000000000000000000000000000000000000000000000000000000600052602260045260246000fd5b600060028204905060018216806200029e57607f821691505b60208210811415620002b557620002b462000256565b5b50919050565b612c4980620002cb6000396000f3fe608060405234801561001057600080fd5b50600436106101165760003560e01c8063715018a6116100a2578063b88d4fde11610071578063b88d4fde146102cd578063c87b56dd146102e9578063d0def52114610319578063e985e9c514610349578063f2fde38b1461037957610116565b8063715018a61461026b5780638da5cb5b1461027557806395d89b4114610293578063a22cb465146102b157610116565b806318160ddd116100e957806318160ddd146101b557806323b872dd146101d357806342842e0e146101ef5780636352211e1461020b57806370a082311461023b57610116565b806301ffc9a71461011b57806306fdde031461014b578063081812fc14610169578063095ea7b314610199575b600080fd5b61013560048036038101906101309190611ceb565b610395565b6040516101429190611d33565b60405180910390f35b610153610477565b6040516101609190611de7565b60405180910390f35b610183600480360381019061017e9190611e3f565b610509565b6040516101909190611ead565b60405180910390f35b6101b360048036038101906101ae9190611ef4565b61054f565b005b6101bd610667565b6040516101ca9190611f43565b60405180910390f35b6101ed60048036038101906101e89190611f5e565b610678565b005b61020960048036038101906102049190611f5e565b6106d8565b005b61022560048036038101906102209190611e3f565b6106f8565b6040516102329190611ead565b60405180910390f35b61025560048036038101906102509190611fb1565b61077f565b6040516102629190611f43565b60405180910390f35b610273610837565b005b61027d61084b565b60405161028a9190611ead565b60405180910390f35b61029b610875565b6040516102a89190611de7565b60405180910390f35b6102cb60048036038101906102c6919061200a565b610907565b005b6102e760048036038101906102e2919061217f565b61091d565b005b61030360048036038101906102fe9190611e3f565b61097f565b6040516103109190611de7565b60405180910390f35b610333600480360381019061032e9190612262565b610a92565b6040516103409190611f43565b60405180910390f35b610363600480360381019061035e91906122c2565b610b0e565b6040516103709190611d33565b60405180910390f35b610393600480360381019061038e9190611fb1565b610ba2565b005b60007f80ac58cd000000000000000000000000000000000000000000000000000000007bffffffffffffffffffffffffffffffffffffffffffffffffffffffff1916827bffffffffffffffffffffffffffffffffffffffffffffffffffffffff1916148061046057507f5b5e139f000000000000000000000000000000000000000000000000000000007bffffffffffffffffffffffffffffffffffffffffffffffffffffffff1916827bffffffffffffffffffffffffffffffffffffffffffffffffffffffff1916145b80610470575061046f82610c26565b5b9050919050565b60606000805461048690612331565b80601f01602080910402602001604051908101604052809291908181526020018280546104b290612331565b80156104ff5780601f106104d4576101008083540402835291602001916104ff565b820191906000526020600020905b8154815290600101906020018083116104e257829003601f168201915b5050505050905090565b600061051482610c90565b6004600083815260200190815260200160002060009054906101000a900473ffffffffffffffffffffffffffffffffffffffff169050919050565b600061055a826106f8565b90508073ffffffffffffffffffffffffffffffffffffffff168373ffffffffffffffffffffffffffffffffffffffff1614156105cb576040517f08c379a00000000000000000000000000000000000000000000000000000000081526004016105c2906123d5565b60405180910390fd5b8073ffffffffffffffffffffffffffffffffffffffff166105ea610cdb565b73ffffffffffffffffffffffffffffffffffffffff161480610619575061061881610613610cdb565b610b0e565b5b610658576040517f08c379a000000000000000000000000000000000000000000000000000000000815260040161064f90612467565b60405180910390fd5b6106628383610ce3565b505050565b60006106736008610d9c565b905090565b610689610683610cdb565b82610daa565b6106c8576040517f08c379a00000000000000000000000000000000000000000000000000000000081526004016106bf906124f9565b60405180910390fd5b6106d3838383610e3f565b505050565b6106f38383836040518060200160405280600081525061091d565b505050565b60008061070483611139565b9050600073ffffffffffffffffffffffffffffffffffffffff168173ffffffffffffffffffffffffffffffffffffffff161415610776576040517f08c379a000000000000000000000000000000000000000000000000000000000815260040161076d90612565565b60405180910390fd5b80915050919050565b60008073ffffffffffffffffffffffffffffffffffffffff168273ffffffffffffffffffffffffffffffffffffffff1614156107f0576040517f08c379a00000000000000000000000000000000000000000000000000000000081526004016107e7906125f7565b60405180910390fd5b600360008373ffffffffffffffffffffffffffffffffffffffff1673ffffffffffffffffffffffffffffffffffffffff168152602001908152602001600020549050919050565b61083f611176565b61084960006111f4565b565b6000600760009054906101000a900473ffffffffffffffffffffffffffffffffffffffff16905090565b60606001805461088490612331565b80601f01602080910402602001604051908101604052809291908181526020018280546108b090612331565b80156108fd5780601f106108d2576101008083540402835291602001916108fd565b820191906000526020600020905b8154815290600101906020018083116108e057829003601f168201915b5050505050905090565b610919610912610cdb565b83836112ba565b5050565b61092e610928610cdb565b83610daa565b61096d576040517f08c379a0000000000000000000000000000000000000000000000000000000008152600401610964906124f9565b60405180910390fd5b61097984848484611427565b50505050565b606061098a82610c90565b60006006600084815260200190815260200160002080546109aa90612331565b80601f01602080910402602001604051908101604052809291908181526020018280546109d690612331565b8015610a235780601f106109f857610100808354040283529160200191610a23565b820191906000526020600020905b815481529060010190602001808311610a0657829003601f168201915b505050505090506000610a34611483565b9050600081511415610a4a578192505050610a8d565b600082511115610a7f578082604051602001610a67929190612653565b60405160208183030381529060405292505050610a8d565b610a888461149a565b925050505b919050565b600080610a9f6008610d9c565b9050610aab6008611502565b610ab58582611518565b610b038185858080601f016020809104026020016040519081016040528093929190818152602001838380828437600081840152601f19601f82011690508083019250505050505050611736565b809150509392505050565b6000600560008473ffffffffffffffffffffffffffffffffffffffff1673ffffffffffffffffffffffffffffffffffffffff16815260200190815260200160002060008373ffffffffffffffffffffffffffffffffffffffff1673ffffffffffffffffffffffffffffffffffffffff16815260200190815260200160002060009054906101000a900460ff16905092915050565b610baa611176565b600073ffffffffffffffffffffffffffffffffffffffff168173ffffffffffffffffffffffffffffffffffffffff161415610c1a576040517f08c379a0000000000000000000000000000000000000000000000000000000008152600401610c11906126e9565b60405180910390fd5b610c23816111f4565b50565b60007f01ffc9a7000000000000000000000000000000000000000000000000000000007bffffffffffffffffffffffffffffffffffffffffffffffffffffffff1916827bffffffffffffffffffffffffffffffffffffffffffffffffffffffff1916149050919050565b610c99816117aa565b610cd8576040517f08c379a0000000000000000000000000000000000000000000000000000000008152600401610ccf90612565565b60405180910390fd5b50565b600033905090565b816004600083815260200190815260200160002060006101000a81548173ffffffffffffffffffffffffffffffffffffffff021916908373ffffffffffffffffffffffffffffffffffffffff160217905550808273ffffffffffffffffffffffffffffffffffffffff16610d56836106f8565b73ffffffffffffffffffffffffffffffffffffffff167f8c5be1e5ebec7d5bd14f71427d1e84f3dd0314c0f7b2291e5b200ac8c7c3b92560405160405180910390a45050565b600081600001549050919050565b600080610db6836106f8565b90508073ffffffffffffffffffffffffffffffffffffffff168473ffffffffffffffffffffffffffffffffffffffff161480610df85750610df78185610b0e565b5b80610e3657508373ffffffffffffffffffffffffffffffffffffffff16610e1e84610509565b73ffffffffffffffffffffffffffffffffffffffff16145b91505092915050565b8273ffffffffffffffffffffffffffffffffffffffff16610e5f826106f8565b73ffffffffffffffffffffffffffffffffffffffff1614610eb5576040517f08c379a0000000000000000000000000000000000000000000000000000000008152600401610eac9061277b565b60405180910390fd5b600073ffffffffffffffffffffffffffffffffffffffff168273ffffffffffffffffffffffffffffffffffffffff161415610f25576040517f08c379a0000000000000000000000000000000000000000000000000000000008152600401610f1c9061280d565b60405180910390fd5b610f3283838360016117eb565b8273ffffffffffffffffffffffffffffffffffffffff16610f52826106f8565b73ffffffffffffffffffffffffffffffffffffffff1614610fa8576040517f08c379a0000000000000000000000000000000000000000000000000000000008152600401610f9f9061277b565b60405180910390fd5b6004600082815260200190815260200160002060006101000a81549073ffffffffffffffffffffffffffffffffffffffff02191690556001600360008573ffffffffffffffffffffffffffffffffffffffff1673ffffffffffffffffffffffffffffffffffffffff168152602001908152602001600020600082825403925050819055506001600360008473ffffffffffffffffffffffffffffffffffffffff1673ffffffffffffffffffffffffffffffffffffffff16815260200190815260200160002060008282540192505081905550816002600083815260200190815260200160002060006101000a81548173ffffffffffffffffffffffffffffffffffffffff021916908373ffffffffffffffffffffffffffffffffffffffff160217905550808273ffffffffffffffffffffffffffffffffffffffff168473ffffffffffffffffffffffffffffffffffffffff167fddf252ad1be2c89b69c2b068fc378daa952ba7f163c4a11628f55a4df523b3ef60405160405180910390a461113483838360016117f1565b505050565b60006002600083815260200190815260200160002060009054906101000a900473ffffffffffffffffffffffffffffffffffffffff169050919050565b61117e610cdb565b73ffffffffffffffffffffffffffffffffffffffff1661119c61084b565b73ffffffffffffffffffffffffffffffffffffffff16146111f2576040517f08c379a00000000000000000000000000000000000000000000000000000000081526004016111e990612879565b60405180910390fd5b565b6000600760009054906101000a900473ffffffffffffffffffffffffffffffffffffffff16905081600760006101000a81548173ffffffffffffffffffffffffffffffffffffffff021916908373ffffffffffffffffffffffffffffffffffffffff1602179055508173ffffffffffffffffffffffffffffffffffffffff168173ffffffffffffffffffffffffffffffffffffffff167f8be0079c531659141344cd1fd0a4f28419497f9722a3daafe3b4186f6b6457e060405160405180910390a35050565b8173ffffffffffffffffffffffffffffffffffffffff168373ffffffffffffffffffffffffffffffffffffffff161415611329576040517f08c379a0000000000000000000000000000000000000000000000000000000008152600401611320906128e5565b60405180910390fd5b80600560008573ffffffffffffffffffffffffffffffffffffffff1673ffffffffffffffffffffffffffffffffffffffff16815260200190815260200160002060008473ffffffffffffffffffffffffffffffffffffffff1673ffffffffffffffffffffffffffffffffffffffff16815260200190815260200160002060006101000a81548160ff0219169083151502179055508173ffffffffffffffffffffffffffffffffffffffff168373ffffffffffffffffffffffffffffffffffffffff167f17307eab39ab6107e8899845ad3d59bd9653f200f220920489ca2b5937696c318360405161141a9190611d33565b60405180910390a3505050565b611432848484610e3f565b61143e848484846117f7565b61147d576040517f08c379a000000000000000000000000000000000000000000000000000000000815260040161147490612977565b60405180910390fd5b50505050565b606060405180602001604052806000815250905090565b60606114a582610c90565b60006114af611483565b905060008151116114cf57604051806020016040528060008152506114fa565b806114d98461198e565b6040516020016114ea929190612653565b6040516020818303038152906040525b915050919050565b6001816000016000828254019250508190555050565b600073ffffffffffffffffffffffffffffffffffffffff168273ffffffffffffffffffffffffffffffffffffffff161415611588576040517f08c379a000000000000000000000000000000000000000000000000000000000815260040161157f906129e3565b60405180910390fd5b611591816117aa565b156115d1576040517f08c379a00000000000000000000000000000000000000000000000000000000081526004016115c890612a4f565b60405180910390fd5b6115df6000838360016117eb565b6115e8816117aa565b15611628576040517f08c379a000000000000000000000000000000000000000000000000000000000815260040161161f90612a4f565b60405180910390fd5b6001600360008473ffffffffffffffffffffffffffffffffffffffff1673ffffffffffffffffffffffffffffffffffffffff16815260200190815260200160002060008282540192505081905550816002600083815260200190815260200160002060006101000a81548173ffffffffffffffffffffffffffffffffffffffff021916908373ffffffffffffffffffffffffffffffffffffffff160217905550808273ffffffffffffffffffffffffffffffffffffffff16600073ffffffffffffffffffffffffffffffffffffffff167fddf252ad1be2c89b69c2b068fc378daa952ba7f163c4a11628f55a4df523b3ef60405160405180910390a46117326000838360016117f1565b5050565b61173f826117aa565b61177e576040517f08c379a000000000000000000000000000000000000000000000000000000000815260040161177590612ae1565b60405180910390fd5b806006600084815260200190815260200160002090805190602001906117a5929190611bdc565b505050565b60008073ffffffffffffffffffffffffffffffffffffffff166117cc83611139565b73ffffffffffffffffffffffffffffffffffffffff1614159050919050565b50505050565b50505050565b60006118188473ffffffffffffffffffffffffffffffffffffffff16611a66565b15611981578373ffffffffffffffffffffffffffffffffffffffff1663150b7a02611841610cdb565b8786866040518563ffffffff1660e01b81526004016118639493929190612b56565b602060405180830381600087803b15801561187d57600080fd5b505af19250505080156118ae57506040513d601f19601f820116820180604052508101906118ab9190612bb7565b60015b611931573d80600081146118de576040519150601f19603f3d011682016040523d82523d6000602084013e6118e3565b606091505b50600081511415611929576040517f08c379a000000000000000000000000000000000000000000000000000000000815260040161192090612977565b60405180910390fd5b805181602001fd5b63150b7a0260e01b7bffffffffffffffffffffffffffffffffffffffffffffffffffffffff1916817bffffffffffffffffffffffffffffffffffffffffffffffffffffffff191614915050611986565b600190505b949350505050565b60606000600161199d84611a89565b01905060008167ffffffffffffffff8111156119bc576119bb612054565b5b6040519080825280601f01601f1916602001820160405280156119ee5781602001600182028036833780820191505090505b509050600082602001820190505b600115611a5b578080600190039150507f3031323334353637383961626364656600000000000000000000000000000000600a86061a8153600a8581611a4557611a44612be4565b5b0494506000851415611a5657611a5b565b6119fc565b819350505050919050565b6000808273ffffffffffffffffffffffffffffffffffffffff163b119050919050565b600080600090507a184f03e93ff9f4daa797ed6e38ed64bf6a1f0100000000000000008310611ae7577a184f03e93ff9f4daa797ed6e38ed64bf6a1f0100000000000000008381611add57611adc612be4565b5b0492506040810190505b6d04ee2d6d415b85acef81000000008310611b24576d04ee2d6d415b85acef81000000008381611b1a57611b19612be4565b5b0492506020810190505b662386f26fc100008310611b5357662386f26fc100008381611b4957611b48612be4565b5b0492506010810190505b6305f5e1008310611b7c576305f5e1008381611b7257611b71612be4565b5b0492506008810190505b6127108310611ba1576127108381611b9757611b96612be4565b5b0492506004810190505b60648310611bc45760648381611bba57611bb9612be4565b5b0492506002810190505b600a8310611bd3576001810190505b80915050919050565b828054611be890612331565b90600052602060002090601f016020900481019282611c0a5760008555611c51565b82601f10611c2357805160ff1916838001178555611c51565b82800160010185558215611c51579182015b82811115611c50578251825591602001919060010190611c35565b5b509050611c5e9190611c62565b5090565b5b80821115611c7b576000816000905550600101611c63565b5090565b6000604051905090565b600080fd5b600080fd5b60007fffffffff0000000000000000000000000000000000000000000000000000000082169050919050565b611cc881611c93565b8114611cd357600080fd5b50565b600081359050611ce581611cbf565b92915050565b600060208284031215611d0157611d00611c89565b5b6000611d0f84828501611cd6565b91505092915050565b60008115159050919050565b611d2d81611d18565b82525050565b6000602082019050611d486000830184611d24565b92915050565b600081519050919050565b600082825260208201905092915050565b60005b83811015611d88578082015181840152602081019050611d6d565b83811115611d97576000848401525b50505050565b6000601f19601f8301169050919050565b6000611db982611d4e565b611dc38185611d59565b9350611dd3818560208601611d6a565b611ddc81611d9d565b840191505092915050565b60006020820190508181036000830152611e018184611dae565b905092915050565b6000819050919050565b611e1c81611e09565b8114611e2757600080fd5b50565b600081359050611e3981611e13565b92915050565b600060208284031215611e5557611e54611c89565b5b6000611e6384828501611e2a565b91505092915050565b600073ffffffffffffffffffffffffffffffffffffffff82169050919050565b6000611e9782611e6c565b9050919050565b611ea781611e8c565b82525050565b6000602082019050611ec26000830184611e9e565b92915050565b611ed181611e8c565b8114611edc57600080fd5b50565b600081359050611eee81611ec8565b92915050565b60008060408385031215611f0b57611f0a611c89565b5b6000611f1985828601611edf565b9250506020611f2a85828601611e2a565b9150509250929050565b611f3d81611e09565b82525050565b6000602082019050611f586000830184611f34565b92915050565b600080600060608486031215611f7757611f76611c89565b5b6000611f8586828701611edf565b9350506020611f9686828701611edf565b9250506040611fa786828701611e2a565b9150509250925092565b600060208284031215611fc757611fc6611c89565b5b6000611fd584828501611edf565b91505092915050565b611fe781611d18565b8114611ff257600080fd5b50565b60008135905061200481611fde565b92915050565b6000806040838503121561202157612020611c89565b5b600061202f85828601611edf565b925050602061204085828601611ff5565b9150509250929050565b600080fd5b600080fd5b7f4e487b7100000000000000000000000000000000000000000000000000000000600052604160045260246000fd5b61208c82611d9d565b810181811067ffffffffffffffff821117156120ab576120aa612054565b5b80604052505050565b60006120be611c7f565b90506120ca8282612083565b919050565b600067ffffffffffffffff8211156120ea576120e9612054565b5b6120f382611d9d565b9050602081019050919050565b82818337600083830152505050565b600061212261211d846120cf565b6120b4565b90508281526020810184848401111561213e5761213d61204f565b5b612149848285612100565b509392505050565b600082601f8301126121665761216561204a565b5b813561217684826020860161210f565b91505092915050565b6000806000806080858703121561219957612198611c89565b5b60006121a787828801611edf565b94505060206121b887828801611edf565b93505060406121c987828801611e2a565b925050606085013567ffffffffffffffff8111156121ea576121e9611c8e565b5b6121f687828801612151565b91505092959194509250565b600080fd5b600080fd5b60008083601f8401126122225761222161204a565b5b8235905067ffffffffffffffff81111561223f5761223e612202565b5b60208301915083600182028301111561225b5761225a612207565b5b9250929050565b60008060006040848603121561227b5761227a611c89565b5b600061228986828701611edf565b935050602084013567ffffffffffffffff8111156122aa576122a9611c8e565b5b6122b68682870161220c565b92509250509250925092565b600080604083850312156122d9576122d8611c89565b5b60006122e785828601611edf565b92505060206122f885828601611edf565b9150509250929050565b7f4e487b7100000000000000000000000000000000000000000000000000000000600052602260045260246000fd5b6000600282049050600182168061234957607f821691505b6020821081141561235d5761235c612302565b5b50919050565b7f4552433732313a20617070726f76616c20746f2063757272656e74206f776e6560008201527f7200000000000000000000000000000000000000000000000000000000000000602082015250565b60006123bf602183611d59565b91506123ca82612363565b604082019050919050565b600060208201905081810360008301526123ee816123b2565b9050919050565b7f4552433732313a20617070726f76652063616c6c6572206973206e6f7420746f60008201527f6b656e206f776e6572206f7220617070726f76656420666f7220616c6c000000602082015250565b6000612451603d83611d59565b915061245c826123f5565b604082019050919050565b6000602082019050818103600083015261248081612444565b9050919050565b7f4552433732313a2063616c6c6572206973206e6f7420746f6b656e206f776e6560008201527f72206f7220617070726f76656400000000000000000000000000000000000000602082015250565b60006124e3602d83611d59565b91506124ee82612487565b604082019050919050565b60006020820190508181036000830152612512816124d6565b9050919050565b7f4552433732313a20696e76616c696420746f6b656e2049440000000000000000600082015250565b600061254f601883611d59565b915061255a82612519565b602082019050919050565b6000602082019050818103600083015261257e81612542565b9050919050565b7f4552433732313a2061646472657373207a65726f206973206e6f74206120766160008201527f6c6964206f776e65720000000000000000000000000000000000000000000000602082015250565b60006125e1602983611d59565b91506125ec82612585565b604082019050919050565b60006020820190508181036000830152612610816125d4565b9050919050565b600081905092915050565b600061262d82611d4e565b6126378185612617565b9350612647818560208601611d6a565b80840191505092915050565b600061265f8285612622565b915061266b8284612622565b91508190509392505050565b7f4f776e61626c653a206e6577206f776e657220697320746865207a65726f206160008201527f6464726573730000000000000000000000000000000000000000000000000000602082015250565b60006126d3602683611d59565b91506126de82612677565b604082019050919050565b60006020820190508181036000830152612702816126c6565b9050919050565b7f4552433732313a207472616e736665722066726f6d20696e636f72726563742060008201527f6f776e6572000000000000000000000000000000000000000000000000000000602082015250565b6000612765602583611d59565b915061277082612709565b604082019050919050565b6000602082019050818103600083015261279481612758565b9050919050565b7f4552433732313a207472616e7366657220746f20746865207a65726f2061646460008201527f7265737300000000000000000000000000000000000000000000000000000000602082015250565b60006127f7602483611d59565b91506128028261279b565b604082019050919050565b60006020820190508181036000830152612826816127ea565b9050919050565b7f4f776e61626c653a2063616c6c6572206973206e6f7420746865206f776e6572600082015250565b6000612863602083611d59565b915061286e8261282d565b602082019050919050565b6000602082019050818103600083015261289281612856565b9050919050565b7f4552433732313a20617070726f766520746f2063616c6c657200000000000000600082015250565b60006128cf601983611d59565b91506128da82612899565b602082019050919050565b600060208201905081810360008301526128fe816128c2565b9050919050565b7f4552433732313a207472616e7366657220746f206e6f6e20455243373231526560008201527f63656976657220696d706c656d656e7465720000000000000000000000000000602082015250565b6000612961603283611d59565b915061296c82612905565b604082019050919050565b6000602082019050818103600083015261299081612954565b9050919050565b7f4552433732313a206d696e7420746f20746865207a65726f2061646472657373600082015250565b60006129cd602083611d59565b91506129d882612997565b602082019050919050565b600060208201905081810360008301526129fc816129c0565b9050919050565b7f4552433732313a20746f6b656e20616c7265616479206d696e74656400000000600082015250565b6000612a39601c83611d59565b9150612a4482612a03565b602082019050919050565b60006020820190508181036000830152612a6881612a2c565b9050919050565b7f45524337323155524953746f726167653a2055524920736574206f66206e6f6e60008201527f6578697374656e7420746f6b656e000000000000000000000000000000000000602082015250565b6000612acb602e83611d59565b9150612ad682612a6f565b604082019050919050565b60006020820190508181036000830152612afa81612abe565b9050919050565b600081519050919050565b600082825260208201905092915050565b6000612b2882612b01565b612b328185612b0c565b9350612b42818560208601611d6a565b612b4b81611d9d565b840191505092915050565b6000608082019050612b6b6000830187611e9e565b612b786020830186611e9e565b612b856040830185611f34565b8181036060830152612b978184612b1d565b905095945050505050565b600081519050612bb181611cbf565b92915050565b600060208284031215612bcd57612bcc611c89565b5b6000612bdb84828501612ba2565b91505092915050565b7f4e487b7100000000000000000000000000000000000000000000000000000000600052601260045260246000fdfea26469706673582212203992befdfb70aebe87372266a87e655a88ef19014cb20fb47e8be3346fa3681864736f6c63430008090033",
  "linkReferences": {},
  "deployedLinkReferences": {}
}